:100000000C946D000C9495000C9495000C94950044
:100010000C9495000C9495000C9495000C9495000C
:100020000C9495000C9495000C9495000C949500FC
:100030000C9495000C9495000C9495000C949500EC
:100040000C94CB060C9495000C9495000C949500A0
:100050000C9495000C9495000C9495000C949500CC
:100060000C9415070C94950032313A33373A3533F6
:10007000004E6F76203133203230323500000000E0
:1000800000240027002A0000000000250028002B83
:1000900000000000002300260029000404040404DA
:1000A0000404040202020202020303030303030125
:1000B00002040810204080010204081020010204FC
:1000C00008102000000008000201000003040700DF
:1000D0000000000000000000410811241FBECFEF07
:1000E000D8E0DEBFCDBF22E0A4E8B1E001C01D92A0
:1000F000AD36B207E1F711E0A0E0B1E0E0E8FCE1E5
:1001000002C005900D92A438B107D9F710E0CDE6F2
:10011000D0E004C02197FE010E94130DCC36D10718
:10012000C9F70E9462080C943E0E0C9400000895DA
:100130000895833081F028F4813099F08230A9F05D
:1001400008958730A9F08830C9F08430B1F48091E7
:1001500080008F7D03C0809180008F778093800026
:10016000089584B58F7784BD089584B58F7DFBCFC6
:100170008091B0008F778093B00008958091B00097
:100180008F7DF9CFCF93DF93282F30E0F901ED5326
:10019000FF4F8491F901E155FF4FD491F901E556E4
:1001A000FF4FC491CC23A1F081110E949900EC2F44
:1001B000F0E0EE0FFF1FEF56FF4FA591B491EC91C9
:1001C000ED2381E090E009F480E0DF91CF91089584
:1001D00080E090E0FACF1F93CF93DF93282F30E099
:1001E000F901ED53FF4F8491F901E155FF4FD4918F
:1001F000F901E556FF4FC491CC23A9F0162F8111C8
:100200000E949900EC2FF0E0EE0FFF1FE957FF4F1F
:10021000A591B4918FB7F894EC91111108C0D095C5
:10022000DE23DC938FBFDF91CF911F910895DE2BEA
:10023000F8CFCF93DF9390E0FC01E155FF4F24917D
:1002400085569F4FFC0184918823D1F090E0880F60
:10025000991FFC01E358FF4FA591B491FC01E957A8
:10026000FF4FC591D491623071F49FB7F8943C91DF
:10027000822F809583238C93E8812E2B28839FBF28
:10028000DF91CF9108958FB7F894EC912E2B2C939A
:100290008FBFF6CF3FB7F8948091D6019091D701E8
:1002A000A091D801B091D90126B5A89B05C02F3FD8
:1002B00019F00196A11DB11D3FBFBA2FA92F982F8C
:1002C0008827BC01CD01620F711D811D911D42E087
:1002D000660F771F881F991F4A95D1F708958F924F
:1002E0009F92AF92BF92CF92DF92EF92FF924B011B
:1002F0005C010E944A016B017C010E944A016C1959
:100300007D098E099F09683E734081059105A8F318
:1003100021E0821A9108A108B10888EEC80E83E096
:10032000D81EE11CF11C81149104A104B10429F729
:10033000FF90EF90DF90CF90BF90AF909F908F9005
:100340000895AF92BF92CF92DF92EF92FF920F93F8
:100350001F93CF93DF936C017B018B01040F151F5B
:10036000EB015E01AE18BF08C017D10759F06991C3
:10037000D601ED91FC910190F081E02DC601099527
:10038000892B79F7C501DF91CF911F910F91FF90D4
:10039000EF90DF90CF90BF90AF9008950895209197
:1003A000A501260F3327331F21323105ECF42091AC
:1003B0002602FC0190E080E0243069F082E008959C
:1003C000A091A5012191AC014B575E4FA40FB52F11
:1003D000B11D2C930196861798F38091A501680FA3
:1003E0006093A50180E0089581E0089510922602AF
:1003F00081E0809325021092000261E082E10E9478
:10040000EB0061E083E10E94EB00E9EBF0E080812A
:100410008E7F808380818D7F808388E48093B80085
:1004200085E48093BC0008951092DF011092DE01F4
:1004300010922D0210924F020E94F60187E990E07F
:100440009093DD018093DC0188E990E09093DB01DB
:100450008093DA010895CF93DF9391E09093840124
:100460008823B9F0C091B800D091BA008091BC0047
:100470008A7B8093BC0060E082E10E94EB0060E038
:1004800083E10E94EB000E94F601D093BA00C09372
:10049000B800DF91CF9108958F929F92AF92BF9253
:1004A000CF92DF92EF92FF920F931F93CF93DF9340
:1004B000D0914F02D13208F0D7C0182FC0914E0210
:1004C0000E944A016B017C018091260281116BC060
:1004D00082E080932602109325028FEF80932402FE
:1004E00010922302D0932202AEE2B2E0E2E0F2E008
:1004F00080E0D81391C01092010280910102CC0FCC
:10050000C82BC093010280910002813009F088C09D
:10051000109200020E944A016B017C01809101024D
:100520008093BB008091280290912902A0912A0219
:10053000B0912B02892B8A2B8B2BA1F00E944A01B0
:10054000009128021091290220912A0230912B0259
:100550006C197D098E099F090617170728073907A7
:1005600008F442C08091BC0083FDD8CF85EC809315
:10057000BC000E944A016B017C01809126028230FE
:1005800009F450C0809124028F3F09F46FC080911C
:100590002402803209F46CC080912402803309F473
:1005A00069C084E026C08091280290912902A09120
:1005B0002A02B0912B02892B8A2B8B2B09F484CF32
:1005C0000E944A018090280290902902A0902A025D
:1005D000B0902B026C197D098E099F09861697062B
:1005E000A806B90608F070CF809127020E942B025E
:1005F00085E010922D0210924F0210922C02DF9192
:10060000CF911F910F91FF90EF90DF90CF90BF900F
:10061000AF909F908F9008959D9191938F5F69CF38
:1006200085EEA5CF8091280290912902A0912A02FF
:10063000B0912B02892B8A2B8B2B09F49ECF0E9421
:100640004A01009128021091290220912A0230913A
:100650002B026C197D098E099F09061717072807B9
:10066000390708F08ACFC0CF81E0C3CF80E0C1CF87
:1006700082E0BFCF83E0BDCF1F93CF93DF93EA012A
:10068000122FDC0111968D919C91DC01ED91FC9172
:100690000280F381E02D0995C817D90729F4812F2D
:1006A0000E944C0291E0811190E0892FDF91CF915F
:1006B0001F910895CF93DF93EC018B818823A1F0E4
:1006C000888191E090932C0280934E0210922D022B
:1006D00010924F0281E00E944C0291E0811190E063
:1006E000892FDF91CF9108950E94140281E08B83BE
:1006F000CE010E945A03982F8111E2CFF1CF0895C5
:10070000E091DF018091DE01E81730F4F0E0E05283
:10071000FE4F808190E008958FEF9FEF08959091B4
:10072000DF018091DE012FEF3FEF981748F4E92FAA
:10073000F0E0E052FE4F208130E09F5F9093DF01B8
:10074000C90108958091DE019091DF01891B990B09
:100750000895CF92DF92EF92FF920F931F93CF9362
:10076000DF937C01CB018A0120912C02222389F0A6
:10077000EB016B01C40ED51ECC15DD0569F0699146
:10078000D701ED91FC910190F081E02DC701099511
:10079000F3CF642F0E94CF01C801DF91CF911F9149
:1007A0000F91FF90EF90DF90CF900895CF93DF935C
:1007B0001F92CDB7DEB7698320912C022223F9F076
:1007C00020914F02203258F021E030E0FC013383C9
:1007D000228390E080E00F90DF91CF910895809187
:1007E0002D02E82FF0E0E25DFD4F998190838F5F4D
:1007F00080932D0280934F0281E090E0ECCF61E086
:10080000CE0101960E94CF01F7CFFC01248131E097
:1008100030932C0220934E0210922D0210924F0220
:100820008485682B80E592E00E94D60381E00C94D9
:100830004C0290E080E008958F929F92AF92BF9219
:100840000F931F93CF93DF93CDB7DEB7A1970FB66A
:10085000F894DEBF0FBECDBF19A2423008F44AE0C3
:100860008E010F5D1F4F842E912CB12CA12CA50160
:1008700094010E94F10CE62FB901CA01EA3044F557
:10088000E05DD801EE938D01232B242B252B79F7E6
:1008900090E080E0109769F0FD0101900020E9F7F9
:1008A0003197AF014A1B5B0BBD018CE592E00E94C2
:1008B000A101A1960FB6F894DEBF0FBECDBFDF91A8
:1008C000CF911F910F91BF90AF909F908F900895FF
:1008D000E95CD7CFFC0101900020E9F73197AF0127
:1008E000481B590BBC018CE592E00C94A1012F929E
:1008F0003F924F925F926F927F928F929F92AF92B0
:10090000BF92CF92DF92EF92FF920F931F93CF93FC
:10091000DF935C011B016A01F12CE12CD5011496D7
:100920008D919C9186010E191F098017910708F47B
:100930008C01F501D0810E944A012B013C0180917C
:100940002602811172C0C02F013208F0C0E2F1E02E
:10095000F093260221E0C601801B910BE816F906F0
:1009600008F420E0209325028FEF80932402109258
:1009700023028C0F80932202A1E0A09301028091B8
:100980000102DD0FD82BD09301028091000281304B
:1009900009F090C0109200020E944A012B013C0114
:1009A000809101028093BB008091280290912902DE
:1009B000A0912A02B0912B02892B8A2B8B2BA1F0BC
:1009C0000E944A01209128023091290240912A0276
:1009D00050912B0264197509860997092617370764
:1009E0004807590708F442C08091BC0083FDD8CF66
:1009F000B5ECB093BC000E944A012B013C018091F0
:100A00002602813009F45AC0809123028C1710F419
:100A1000C0912302A2E0B2E0E0EEF1E080E08C17AA
:100A200051F19D9191938F5FFACF8091280290911F
:100A30002902A0912A02B0912B02892B8A2B8B2BA1
:100A400009F47DCF0E944A012091280230912902A9
:100A500040912A0250912B02641975098609970961
:100A6000261737074807590708F069CF80912702F2
:100A70000E942B02C0E01092DF01C093DE01C0177C
:100A8000110609F057C041018E0C9F1CE401CE01F4
:100A9000881999098017910798F5D50111968D91BC
:100AA0009C91DC01ED91FC910284F385E02D099588
:100AB0008993EDCFE5EEE093BC009DCF80912802B5
:100AC00090912902A0912A02B0912B02892B8A2BA6
:100AD0008B2B09F494CF0E944A0120912802309177
:100AE000290240912A0250912B0264197509860946
:100AF0009709261737074807590708F080CFB6CF60
:100B0000E00EF11EEC14FD0408F408CF81E0DF9143
:100B1000CF911F910F91FF90EF90DF90CF90BF90FA
:100B2000AF909F908F907F906F905F904F903F908D
:100B30002F90089580E0EBCF682F70E090E080E088
:100B40004AE00C941C040F931F93CF938C01C62F83
:100B50000E9405046C2F6460C8010E9405046C2F7C
:100B60006B7FC8010E94050483EC90E00197F1F7C8
:100B7000CF911F910F9108950F931F93CF93DF9300
:100B80008C01D62FC42F607F642B0E94A30580E1C7
:100B9000D89FB00111246C2BC801DF91CF911F9118
:100BA0000F910C94A305CF93DF93CDB7DEB72897B1
:100BB0000FB6F894DEBF0FBECDBF98E0EBE0F1E0DA
:100BC000DE01119601900D929A95E1F790916402E1
:100BD000961708F46FEF262F30E0220F331F41E005
:100BE00050E04C0F5D1F240F351FF9016081680F25
:100BF000606840E08CE592E028960FB6F894DEBF7E
:100C00000FBECDBFDF91CF910C94BC0540E061E0F9
:100C10008CE592E00E94BC058BE39FE10197F1F720
:100C200080916502882321F060E080E00C94D30578
:100C3000089541E00E94BC0581E090E0089541E004
:100C4000682F8CE592E00E94BC0581E090E0089559
:100C5000CF92DF92EF92FF92CF93DF936C01990FC7
:100C6000EE08FF08F7FE17C08DE20E941F06EC0198
:100C700066277727CB016C197D098E099F094AE009
:100C80000E941C048C0F9D1FDF91CF91FF90EF906D
:100C9000DF90CF9008954AE0C701B601DF91CF9170
:100CA000FF90EF90DF90CF900C941C040F931F9354
:100CB000CF93DF93C82F61E080E00E94D30581E3EA
:100CC00091E00E946A048EE3C11101C080E20E949B
:100CD0001F0600910201109103010A3011051CF456
:100CE00080E30E941F06C8010E9428068AE30E9432
:100CF0001F068EE3C11180E20E941F06C091000111
:100D0000D0910101CA30D1051CF480E30E941F0676
:100D1000CE010E94280682E691E0DF91CF911F91DB
:100D20000F910C946A0485ED8093BC008091280299
:100D300090912902A0912A02B0912B020796A11D41
:100D4000B11D23E0B695A795979587952A95D1F77C
:100D50002091BC0024FD03C010922602089540910A
:100D600028025091290260912A0270912B02452B92
:100D7000462B472B69F30097A105B10541F02AE204
:100D80002A95F1F700C00197A109B109E1CF80913F
:100D900027020C942B021F920F920FB60F92112470
:100DA0002F933F938F939F93AF93BF938091D201E3
:100DB0009091D301A091D401B091D5013091D1018E
:100DC00023E0230F2D3758F50196A11DB11D209367
:100DD000D1018093D2019093D301A093D401B09319
:100DE000D5018091D6019091D701A091D801B09101
:100DF000D9010196A11DB11D8093D6019093D70111
:100E0000A093D801B093D901BF91AF919F918F91D9
:100E10003F912F910F900FBE0F901F90189526E8CD
:100E2000230F0296A11DB11DD2CF1F920F920FB6B4
:100E30000F9211242F933F934F935F936F937F9360
:100E40008F939F93AF93BF93EF93FF938091B900DC
:100E5000887F803609F44AC0F0F5883209F4A7C0CB
:100E600018F5803109F49BC0B8F4882309F4F9C05F
:100E7000883009F494C0FF91EF91BF91AF919F9199
:100E80008F917F916F915F914F913F912F910F9033
:100E90000FBE0F901F901895883109F488C08032DA
:100EA00051F78093240214C0803409F49DC040F4AB
:100EB0008033B9F38833F9F68093240285ECB0C00F
:100EC000803509F485C0883509F496C0883499F6D0
:100ED0000E949306D0CF883909F48CC038F5883742
:100EE00029F050F4883611F0803729F683E080939A
:100EF00026021092C70157C0883809F47BC0803998
:100F000019F0803809F0B7CF8091C701803208F01E
:100F100071C0E091C70181E08E0F8093C70180917D
:100F2000BB00F0E0E955FE4F80833DC0803B39F0C7
:100F3000E0F4803A09F479C0883A09F09CCF84E063
:100F4000809326021092A6011092A501E091DC0187
:100F5000F091DD0109958091A50181110FC081E01B
:100F60008093A5011092850109C0803C09F4A6CFA9
:100F7000883C09F4A3CF883B09F07DCFE091A6011E
:100F800081E08E0F8093A601F0E0EB57FE4F808149
:100F90008093BB009091A6018091A50129C080910A
:100FA00001028093BB0085EC8093BC0064CF9091DC
:100FB000230280912202981758F5E091230281E0E4
:100FC0008E0F80932302F0E0EE5FFD4F8081E9CF2A
:100FD000E091230281E08E0F809323028091BB0079
:100FE000F0E0EE5FFD4F808390912302809122021A
:100FF0009817C8F285E8D8CFE091230281E08E0FE0
:10100000809323028091BB00F0E0EE5FFD4F808370
:101010008091250281115CCF81E08093000284EAF7
:101020008093BC001092260226CF85EC8093BC00F2
:10103000109226028091C701803230F4E091C701FE
:10104000F0E0E955FE4F10826091C70170E0E09139
:10105000DA01F091DB0187EA91E009951092C7016E
:101060000ACF1092240234CFFC01908190539A3021
:1010700008F090E0818180532AE0929F800D112436
:101080000895E0E5F2E01382128288EE93E0A0E09A
:10109000B0E084839583A683B78387E191E0918351
:1010A0008083ECE5F2E01382128289E291E0918381
:1010B0008083118687E2848380E1828782E0838750
:1010C00014860895CF93DF93CDB7DEB762970FB63E
:1010D000F894DEBF0FBECDBF789484B5826084BD26
:1010E00084B5816084BD85B5826085BD85B581602C
:1010F00085BD80916E00816080936E0010928100AA
:101100008091810082608093810080918100816064
:101110008093810080918000816080938000809125
:10112000B10084608093B1008091B00081608093B1
:10113000B00080917A00846080937A0080917A0078
:10114000826080937A0080917A00816080937A0037
:1011500080917A00806880937A001092C1000E948A
:1011600014021092610280916702823018F098E0B8
:10117000909361028093640262E370E080E090E00B
:101180000E946F01609168028CE592E00E94050464
:1011900068EE73E080E090E00E946F0160E38CE510
:1011A00092E00E94A3050BE416E4C8010197F1F751
:1011B00060E38CE592E00E94A305C8010197F1F776
:1011C00060E38CE592E00E94A30583E592E001973D
:1011D000F1F760E28CE592E00E94A3056091610264
:1011E000606240E08CE592E00E94BC0584E0809360
:1011F000620240E06CE08CE592E00E94BC050E9437
:10120000060682E08093630240E066E08CE592E0AF
:101210000E94BC0540E062E08CE592E00E94BC05C3
:101220008BE39FE10197F1F788E08093680260E02B
:101230008CE592E00E9405048091CF019091D0014D
:10124000009711F00E94B50D86E090E00E94190D04
:101250008C0188E6F801808380E592E092838183A7
:10126000138280E290E0958384831093D0010093F1
:10127000CF010E941402EE24E394F801E382C80136
:101280000E945A03811105C08BE391E00E946A0419
:10129000FFCF1C868091CF019091D001FC01248169
:1012A0003581232B89F02081E0922C0220934E027D
:1012B00010922D0210924F0221E041E050E0BE0159
:1012C000645F7F4F0E943C0341E050E08E010F5F5E
:1012D0001F4FB8018091CF019091D0010E947704F7
:1012E000898190E0880F892F881F990B892B09F439
:1012F000B3C00E94060680E591E00E946A044BE0BC
:1013000050E061E770E0C8010E94DC0CCE010A9653
:101310000E943408E82EE981E154E33130F50E2EC5
:10132000000CFF0BEA56F64F0C94130D4A0BB5094F
:10133000B509650BB509680BB509B509B509A90962
:10134000B509B509530B620B5F0BB509B509B509B2
:101350005C0B8A81FF24F394813639F08B81F6E0AF
:10136000FF2E8E3611F0E7E0FE2ECE0105960E948C
:101370003408D82E48E050E068E670E0C8010E94CA
:10138000DC0CC8010E943408C82ECE0104960E94CD
:101390003408B82ECE0107960E943408382F86E014
:1013A000F80111928A95E9F72AE0832F622F0E94B3
:1013B000E50C982F880F890F880F830F8A838B2D58
:1013C0000E94E50C982F880F890F880F8B0D8B8357
:1013D0008C2D0E94E50C982F880F890F880F8C0D9B
:1013E0008C838D2D0E94E50C982F880F890F880F14
:1013F0008D0D8E838F2D0E94E50C982F990F890FEC
:10140000880FF80EFF828E2D0E94E50C982F880F12
:10141000890F880F8E0D88878091CF019091D00120
:10142000FC01248135812830310580F0208131E0B4
:1014300030932C0220934E0210922D0210924F02F4
:1014400021E048E050E0B8010E943C0360ED77E005
:1014500080E090E00E946F0162E083E00E94190149
:1014600062E084E00E94190162E085E00E941901B7
:1014700062E086E00E94190161E082E00E941901A9
:1014800061E087E00E94190170E0272E70E0372E9E
:10149000E2E08E2E912CFBE3CF2ED12CA7E1AA2ED9
:1014A000B12C1982E090CF01F090D001F701848136
:1014B0009581892BC9F08081F1E0F0932C02809313
:1014C0004E0210922D0210924F0220E041E050E0B7
:1014D000B801C7010E943C03882331F047E050E087
:1014E000B801C7010E94770429812A8B3A813D8780
:1014F0004B814E875D815F878E81888B9F81998B21
:1015000061E087E00E94EB0060E087E00E94EB0072
:101510008FB7F8944090D2015090D3016090D401DD
:101520007090D5018FBF8091C8019091C901A091A1
:10153000CA01B091CB01A3019201281B390B4A0BC0
:101540005B0BDA01C901883C9105A105B10508F4DE
:1015500087C083E00E94C200892BC9F44092C80171
:101560005092C9016092CA017092CB018091CC0166
:10157000882309F4B0C01092CC011092CE011092D1
:10158000CD016CE271E080E090E00E946F0184E0A8
:101590000E94C200E090CD01F090CE01892B01F5B0
:1015A0004092C8015092C9016092CA017092CB0169
:1015B00031E0E316F10409F0A3C08091020190919B
:1015C00003010196883191050CF095C090930301B9
:1015D0008093020168EC70E080E090E00E946F016F
:1015E00085E00E94C200892BF1F44092C80150921C
:1015F000C9016092CA017092CB0151E0E516F10475
:1016000009F09AC08091020190910301019797FD22
:101610008EC0909303018093020168EC70E080E03B
:1016200090E00E946F0186E00E94C200892BC1F405
:101630004092C8015092C9016092CA017092CB01D8
:10164000E114F10409F08EC08091040191E0892732
:10165000809304016CE271E080E090E00E946F01F1
:101660008091CD019091CE018130910509F49EC108
:1016700008F48DC0029709F49DC164E670E080E033
:1016800090E00E946F012114310409F40ACF0E94F6
:10169000000007CF8B8174E0F72E823709F465CE06
:1016A00068E0F62E62CE8B8153E0F52E823709F486
:1016B0005CCE45E0F42E59CE39E0F32E56CE2AE02A
:1016C000F22E53CE9BE0F92E50CE8CE0F82E4DCE6C
:1016D000B2E0FB2E4ACE8091CD019091CE01892BB4
:1016E00009F04FCF81E090E09093CE018093CD013F
:1016F0000E94060646CF10920301109202016ACFA3
:1017000042E0E416F10409F065CF80910001909168
:10171000010101968C3391052CF490930101809383
:10172000000158CF109201011092000153CFB092E6
:101730000301A092020171CF82E0E816F10409F0E2
:101740006CCF8091000190910101019797FD05C038
:10175000909301018093000160CFD0920101C0926B
:1017600000015BCFE1E0EE16F10439F49092CE0176
:101770008092CD010E9406066DCFF2E0EF16F104D3
:1017800009F068CF1092CE011092CD01F3CF2F85D2
:10179000822F90E064E0959587956A95E1F7982F00
:1017A000990F990FF82EF91AFF0CF20E61E080E004
:1017B0000E94D30539E03F1518F080E30E941F0610
:1017C0004889842F90E054E0959587955A95E1F7E4
:1017D000982F990F990FE82EE91AEE0CE40E8F2D31
:1017E0000E949C058FE20E941F0659E05E1518F0CA
:1017F00080E30E941F068E2D0E949C058FE20E94AE
:101800001F068989682F70E044E0759567954A95B1
:10181000E1F7862F880F880F681B660F9989690F7B
:1018200070E06053784F90E080E04AE00E941C0432
:1018300061E08BE00E94D30580910401882309F4C4
:10184000ADC0E0900201F0900301EAE0EE16F10471
:101850001CF480E30E941F06C7010E9428068AE349
:101860000E941F06E0900001F0900101FAE0EF16DF
:10187000F1041CF480E30E941F06C7010E942806A1
:101880002E85E22EF12C34E0F594E7943A95E1F7B9
:101890008E2D880F880FE81AEE0CE20E60E080E0D3
:1018A0000E94D30539E03E1518F080E30E941F0620
:1018B0004D85842F90E024E0959587952A95E1F752
:1018C000982F990F990FF82EF91AFF0CF40E8E2D00
:1018D0000E949C058AE30E941F0659E05F1518F0DC
:1018E00080E30E941F068A898F77282F30E094E0DA
:1018F000359527959A95E1F7922F990F990F722EAA
:10190000791A770C780E8F2D0E949C058AE30E942D
:101910001F0689E0871518F080E30E941F06872DB7
:101920000E949C0560E08BE00E94D3058091040139
:101930008823C9F185E691E00E946A048091040140
:10194000882309F49ACE8091020190910301E81650
:10195000190661F48091000190910101F8161906B1
:1019600029F4711003C091E09093CC018091CC01D7
:10197000882309F482CE61E082E00E94EB0060E0FF
:1019800087E00E94EB000E94060660E080E00E9473
:10199000D30583E791E00E946A046FCE8EE591E063
:1019A0000E946A046DCF8CE691E0C6CF81E00E9470
:1019B000560663CE80E0FBCFFB01DC0102C0059040
:1019C0000D9241505040D8F70895991B79E004C01A
:1019D000991F961708F0961B881F7A95C9F780956E
:1019E0000895A1E21A2EAA1BBB1BFD010DC0AA1F60
:1019F000BB1FEE1FFF1FA217B307E407F50720F078
:101A0000A21BB30BE40BF50B661F771F881F991FF2
:101A10001A9469F760957095809590959B01AC013B
:101A2000BD01CF010895EE0FFF1F0590F491E02D49
:101A300009940F931F93CF93DF938230910510F495
:101A400082E090E0E0916B02F0916C0230E020E0E7
:101A5000B0E0A0E0309799F42115310509F44AC0AF
:101A6000281B390B24303105D8F58A819B816115FB
:101A7000710589F1FB0193838283FE0111C04081CE
:101A800051810281138148175907E0F0481759071F
:101A900099F4109761F012960C93129713961C9379
:101AA0003296CF01DF91CF911F910F91089500934E
:101AB0006B0210936C02F4CF2115310551F04217DF
:101AC000530738F0A901DB019A01BD01DF01F801DC
:101AD000C1CFEF01F9CF90936C0280936B02CDCF11
:101AE000FE01E20FF31F8193919322503109398354
:101AF0002883D7CF2091690230916A02232B41F4C9
:101B0000209107013091080130936A022093690205
:101B100020910501309106012115310541F42DB7C1
:101B20003EB74091090150910A01241B350BE09109
:101B30006902F0916A02E217F307A0F42E1B3F0B33
:101B40002817390778F0AC014E5F5F4F241735072F
:101B500048F04E0F5F1F50936A02409369028193D1
:101B600091939FCFF0E0E0E09CCFCF93DF9300977D
:101B7000E9F0FC01329713821282A0916B02B091BE
:101B80006C02ED0130E020E01097A1F4208131815A
:101B9000820F931F2091690230916A02281739073A
:101BA00009F061C0F0936A02E0936902DF91CF917E
:101BB0000895EA01CE17DF07E8F54A815B819E01AF
:101BC00041155105B1F7E901FB83EA834991599128
:101BD000C40FD51FEC17FD0761F480819181029637
:101BE000840F951FE90199838883828193819B8368
:101BF0008A83F0E0E0E012968D919C911397009714
:101C0000B9F52D913C911197CD010296820F931F4A
:101C10002091690230916A022817390739F6309706
:101C200051F510926C0210926B02B0936A02A0936D
:101C30006902BCCFD383C28340815181840F951F39
:101C4000C817D90761F44E5F5F4F88819981480FAB
:101C5000591F518340838A819B81938382832115FD
:101C6000310509F0B0CFF0936C02E0936B029ECF88
:101C7000FD01DC01C0CF13821282D7CFF894FFCFD1
:101C80001E0014000100006D0280000000400014DE
:101C900000540000000000D603A90319047F03A22A
:101CA000038F038003000000001906A1011904CE70
:101CB0000142616F20746875633A00525443206B8F
:101CC000686F6E6720686F617420646F6E672100B3
:101CD0005254432061646A7573742E2E2E002020A6
:101CE00020202020004F4E20202020004F4646205C
:101CF000202000202057414B4520555021212120F4
:041D0000202020007F
:00000001FF
