:020000040000FA
:100000000C9462000C948A000C948A000C948A0070
:100010000C948A000C948A000C948A000C948A0038
:100020000C948A000C948A000C948A000C948A0028
:100030000C948A000C948A000C948A000C948A0018
:100040000C9455030C948A000C94C5030C949F03E4
:100050000C948A000C948A000C948A000C948A00F8
:100060000C948A000C948A000000000024002700F1
:100070002A000000000023002600290000000000E4
:10008000250028002B0004040404040404040202D4
:100090000202020203030303030301020408102007
:1000A0004080010204081020010204081020000012
:1000B0000008000201000003040700000000000027
:1000C0000000BA0611241FBECFEFD8E0DEBFCDBFBF
:1000D00023E0AAE7B2E001C01D92A433B207E1F722
:1000E00012E0A0E0B1E0E4E7F2E102C005900D9279
:1000F000AA37B107D9F710E0C2E6D0E004C02197D3
:10010000FE010E944007C136D107C9F70E94F703DC
:100110000C9438090C940000CF92DF92EF92FF927A
:100120006B017C01E091A302F091A40282E0808344
:10013000C11481EED806E104F104A1F060E079E099
:100140008DE390E0A70196010E941E07215031091E
:10015000410951095695479537952795211580E115
:100160003807A8F0E091A302F091A402108260E8A1
:1001700074E88EE190E0A70196010E941E072150CD
:100180003109410951095695479537952795E091D1
:100190009F02F091A0023083E091A102F091A202AF
:1001A00020831092AB02E091A702F091A80286E0B2
:1001B0008083E091A502F091A60280818061808316
:1001C000E091A502F091A602808188608083E09191
:1001D000A502F091A602808180688083E091A5024B
:1001E000F091A60280818F7D8083FF90EF90DF9059
:1001F000CF900895833081F028F4813099F08230D7
:10020000A9F008958730A9F08830C9F08430B1F49E
:10021000809180008F7D03C0809180008F778093D4
:100220008000089584B58F7784BD089584B58F7D4F
:10023000FBCF8091B0008F778093B00008958091BC
:10024000B0008F7DF9CF1F93CF93DF93E1EBF0E008
:100250009491EDE9F0E0D491E9E8F0E0C491CC2389
:10026000B9F0182F992319F0892F0E94FA00EC2F6A
:10027000F0E0EE0FFF1FE458FF4FA591B4918FB748
:10028000F894EC91111108C0D095DE23DC938FBF58
:10029000DF91CF911F910895DE2BF8CF3FB7F894EF
:1002A00080918F0290919002A0919102B091920260
:1002B00026B5A89B05C02F3F19F00196A11DB11DC1
:1002C0003FBFBA2FA92F982F8827BC01CD01620FFD
:1002D000711D811D911D42E0660F771F881F991FB8
:1002E0004A95D1F708958F929F92AF92BF92CF9285
:1002F000DF92EF92FF920E944E014B015C0184E677
:10030000C82ED12CE12CF12C0E944E0168197909DC
:100310008A099B09683E734081059105A8F321E095
:10032000C21AD108E108F10888EE880E83E0981E11
:10033000A11CB11CC114D104E104F10429F7FF9000
:10034000EF90DF90CF90BF90AF909F908F900895E7
:100350002FB7F89460918B0270918C0280918D027E
:1003600090918E022FBF0895AF92BF92CF92DF92ED
:10037000EF92FF920F931F93CF93DF936C017B015A
:100380008B01040F151FEB015E01AE18BF08C017EB
:10039000D10759F06991D601ED91FC910190F0815E
:1003A000E02DC6010995892B79F7C501DF91CF9121
:1003B0001F910F91FF90EF90DF90CF90BF90AF9083
:1003C0000895FC01538D448D252F30E0842F90E05B
:1003D000821B930B541710F0CF9608950197089540
:1003E000FC01918D828D981761F0A28DAE0FBF2F09
:1003F000B11D5D968C91928D9F5F9F73928F90E05F
:1004000008958FEF9FEF08950F931F930E94A80107
:1004100060939B0270939C0280939D0290939E0236
:1004200083E992E00E94F00197FF1DC00E94A8019D
:1004300000919B0210919C0220919D0230919E029E
:10044000601B710B820B930B009197021091980225
:100450002091990230919A026017710782079307E1
:10046000F8F28FEF9FEF1F910F910895FC01918D8E
:10047000828D981731F0828DE80FF11D858D90E007
:1004800008958FEF9FEF0895FC01918D228D892FA4
:1004900090E0805C9F4F821B91098F73992708958C
:1004A00083E992E00E94440221E0892B09F420E0D4
:1004B000822F089580E090E0892B29F00E9450025D
:1004C00081110C9400000895FC01A48DA80FB92F90
:1004D000B11DA35ABF4F2C91848D90E001968F736C
:1004E0009927848FA689B7892C93A089B1898C918B
:1004F000837080648C93938D848D981306C00288DA
:10050000F389E02D80818F7D80830895EF92FF92A3
:100510000F931F93CF93DF93EC0181E0888F9B8D26
:100520008C8D98131AC0E889F989808185FF15C0E0
:100530009FB7F894EE89FF896083E889F989808103
:100540008370806480839FBF81E090E0DF91CF91D2
:100550001F910F91FF90EF900895F62E0B8D10E0F4
:100560000F5F1F4F0F731127E02E8C8D8E110CC063
:100570000FB607FCFACFE889F989808185FFF5CFAE
:10058000CE010E946402F1CFEB8DEC0FFD2FF11D27
:10059000E35AFF4FF0829FB7F8940B8FEA89FB89EB
:1005A00080818062CFCFCF93DF93EC01888D882349
:1005B000B9F0AA89BB89E889F9898C9185FD03C0C6
:1005C000808186FD0DC00FB607FCF7CF8C9185FFAB
:1005D000F2CF808185FFEDCFCE010E946402E9CF8A
:1005E000DF91CF91089583E992E00E94D302E3E97D
:1005F000F2E0A289B3898C918F7E8C93A289B38912
:100600008C91877F8C93A289B3898C918F778C93FF
:10061000A289B3898C918F7D8C93828D818F08956F
:10062000FC0101900020E9F73197AF01481B590BFD
:10063000BC0183E992E00C94B40181E291E00C9456
:100640001003CF93DF930E941003EC010E941D035F
:100650008C0F9D1FDF91CF9108950F931F93CF9320
:10066000DF93EC0188819981009759F02A813B81C1
:100670002617370730F081E0DF91CF911F910F915E
:1006800008958B016F5F7F4F0E946B08009759F0B0
:10069000998388831B830A832C813D81232B59F7FF
:1006A000FC011082E8CF80E0E7CF1F920F920FB6D7
:1006B0000F9211242F933F938F939F93AF93BF93E8
:1006C00080918B0290918C02A0918D02B0918E024C
:1006D00030918A0223E0230F2D3758F50196A11D92
:1006E000B11D20938A0280938B0290938C02A09379
:1006F0008D02B0938E0280918F0290919002A09112
:100700009102B09192020196A11DB11D80938F02BA
:1007100090939002A0939102B0939202BF91AF91F7
:100720009F918F913F912F910F900FBE0F901F902F
:10073000189526E8230F0296A11DB11DD2CF1F9256
:100740000F920FB60F9211242F933F934F935F9305
:100750006F937F938F939F93AF93BF93EF93FF9389
:1007600083E992E00E946402FF91EF91BF91AF9103
:100770009F918F917F916F915F914F913F912F91B9
:100780000F900FBE0F901F9018951F920F920FB6EB
:100790000F9211242F938F939F93EF93FF93E091E8
:1007A000A302F091A4028081E091A902F091AA0233
:1007B00082FD1BC090818091AC028F5F8F7320916E
:1007C000AD02821741F0E091AC02F0E0ED56FD4F32
:1007D000958F8093AC02FF91EF919F918F912F9114
:1007E0000F900FBE0F901F9018958081F4CFCF937C
:1007F000DF93CDB7DEB7A3970FB6F894DEBF0FBE79
:10080000CDBF789484B5826084BD84B5816084BD99
:1008100085B5826085BD85B5816085BD80916E009E
:10082000816080936E0010928100809181008260CF
:10083000809381008091810081608093810080910C
:1008400080008160809380008091B10084608093FB
:10085000B1008091B00081608093B00080917A00F7
:10086000846080937A0080917A00826080937A001D
:1008700080917A00816080937A0080917A0080680C
:1008800080937A001092C100ECE9F0E02491E8E84E
:100890002E2EE0E03E2EF10184918823C9F090E0F5
:1008A000880F991FFC01E859FF4FA591B491FC01F5
:1008B000E458FF4F459154919FB7F8943C91822F93
:1008C000809583238C93FA018081282B20839FBFFE
:1008D000EDE9F0E02491E9E8F0E08491882399F0D3
:1008E00090E0880F991FFC01E859FF4FA591B49142
:1008F000FC01E458FF4F859194918FB7F894EC91E7
:10090000E22BEC938FBF60E875E280E090E00E94FC
:100910008C0084E291E00E9421038FE391E00E9429
:10092000210389E491E00E9421038DE591E00E947A
:10093000210383E791E00E9421030E941D0380E0D0
:100940000E94230110928902109288024AE0442EEC
:10095000512C612C712CAA24A394B12C30E0832E4D
:1009600030E0932EE0EBF0E08491ECE9F0E00491CC
:10097000F10114911111C8C080918202811112C03D
:10098000F1E0F09382020E94A80160937E027093CE
:100990007F0280938002909381028091820288235B
:1009A00009F490C00E94A80100917E0210917F027C
:1009B0002091800230918102601B710B820B930B9E
:1009C000683B7B408105910508F47CC08091000163
:1009D00010928202882309F416C1109200010E942D
:1009E000F3020E947301E0917A02F0917B02EE0F14
:1009F000FF1FEE0FFF1FE75EFE4F60817181828156
:100A000093810E948C000E94730180EB91E00E9410
:100A1000210380917A0290917B02892B09F0DAC040
:100A200089EC91E00E94210381E092E00E94100392
:100A3000E0917A02F0917B02EE0FFF1FEE0FFF1F95
:100A4000E75EFE4FC080D180E280F380F7FEC5C034
:100A50006DE283E992E00E94860222273327A901F2
:100A60002C193D094E095F0919A28E010F5D1F4F18
:100A7000CA01B901A30192010E941E07605DF8013D
:100A800062938F01211531054105510589F7011543
:100A9000110519F0C8010E9410038BEA91E00E9431
:100AA00021038CE092E00E9421030E941D0381E05B
:100AB0000E942301B0928902A092880210927D02C6
:100AC00010927C0280910001882309F4F0C080918B
:100AD0008802909189028130910509F4C1C0823069
:100AE000910509F4BFC0892B19F480E00E9423010D
:100AF0008114910409F436CF0E945002882309F42E
:100B00002DCF0E9400002ACF81110E94FA00E12F10
:100B1000F0E0EE0FFF1FEE58FF4FA591B4919C91AE
:100B200080918202092309F427CF882359F20E9479
:100B3000A80100917E0210917F02209180023091E5
:100B40008102601B710B820B930B683B7B4081051C
:100B5000910540F580910001882321F180917C026C
:100B600090917D02019690937D0280937C0281306A
:100B70009105D9F410927B0210927A0288E891E0F4
:100B80000E94210382E090E0909389028093880282
:100B90000E94A8016093840270938502809386026C
:100BA0009093870210928202F8CE0297DCF3B09203
:100BB0007B02A0927A028BE991E00E9421031092BD
:100BC0007D0210927C02E2E0F0E0F0938902E09373
:100BD0008802DECF84EE91E025CFA701960119A20D
:100BE0008E010F5D1F4FCA01B901A30192010E943E
:100BF0001E07605DF80162938F01211531054105E3
:100C0000510589F744CFF1E0F09300010E94F3020F
:100C10000E94730160E875E280E090E00E948C0021
:100C20000E9473018BE292E00E9421038FE391E026
:100C30000E94210384E492E00E94210388E592E06F
:100C40000E94210383E791E00E9421030E941D037B
:100C500080E00E94230110928902109288022ECF18
:100C600081E044CF0E94A801009184021091850286
:100C70002091860230918702601B710B820B930BCF
:100C8000683C71058105910508F432CF0E94A801E6
:100C9000609384027093850280938602909387020A
:100CA0008091830221E08227809383021FCF83E912
:100CB00092E00E944402892B09F41ACF1A82198209
:100CC0001C821B821E821D8270E060E0CE010196B4
:100CD0000E942D0329813A8181112EC021153105F1
:100CE00019F0C9010E94E2071A8219821E821D8230
:100CF0001C821B820E94040297FD26C08A30910547
:100D000019F18AA31BA20D811E810F5F1F4FB8012D
:100D1000CE0101960E942D03882361F329813A8137
:100D20008D819E81BE016E5D7F4F820F931F0E9459
:100D300031091E830D83DECF1E821D8263E271E0C6
:100D4000C9010E943109D6CF8EE692E00E941003BD
:100D50004D815E8169817A8183E992E00E94B401CC
:100D60000E941D0389819A81009709F4C1CE0E94D7
:100D7000E207BECEE3E9F2E01382128288EE93E04E
:100D8000A0E0B0E084839583A683B7838BE091E0F5
:100D90009183808385EC90E09587848784EC90E054
:100DA0009787868780EC90E0918B808B81EC90E038
:100DB000938B828B82EC90E0958B848B86EC90E019
:100DC000978B868B118E128E138E148E08952F9210
:100DD0003F924F925F926F927F928F929F92AF92CB
:100DE000BF92CF92DF92EF92FF920F931F93CF9318
:100DF000DF93CDB7DEB7CA1BDB0B0FB6F894DEBFAF
:100E00000FBECDBF09942A88398848885F846E84D4
:100E10007D848C849B84AA84B984C884DF80EE801E
:100E2000FD800C811B81AA81B981CE0FD11D0FB627
:100E3000F894DEBF0FBECDBFED010895A1E21A2EDA
:100E4000AA1BBB1BFD010DC0AA1FBB1FEE1FFF1F6E
:100E5000A217B307E407F50720F0A21BB30BE40BBE
:100E6000F50B661F771F881F991F1A9469F7609505
:100E70007095809590959B01AC01BD01CF010895BF
:100E8000EE0FFF1F0590F491E02D09940F931F932F
:100E9000CF93DF938230910510F482E090E0E091EF
:100EA0003203F091330330E020E0B0E0A0E030976F
:100EB00099F42115310509F44AC0281B390B243057
:100EC0003105D8F58A819B816115710589F1FB0196
:100ED00093838283FE0111C040815181028113817D
:100EE00048175907E0F04817590799F4109761F02F
:100EF00012960C93129713961C933296CF01DF91A2
:100F0000CF911F910F9108950093320310933303F3
:100F1000F4CF2115310551F04217530738F0A901DC
:100F2000DB019A01BD01DF01F801C1CFEF01F9CF6B
:100F30009093330380933203CDCFFE01E20FF31F72
:100F4000819391932250310939832883D7CF2091FF
:100F5000300330913103232B41F420910301309170
:100F6000040130933103209330032091010130912B
:100F700002012115310541F42DB73EB7409105011D
:100F800050910601241B350BE0913003F0913103A1
:100F9000E217F307A0F42E1B3F0B2817390778F050
:100FA000AC014E5F5F4F2417350748F04E0F5F1FAF
:100FB0005093310340933003819391939FCFF0E09E
:100FC000E0E09CCFCF93DF930097E9F0FC013297EC
:100FD00013821282A0913203B0913303ED0130E00D
:100FE00020E01097A1F420813181820F931F20917E
:100FF0003003309131032817390709F061C0F093AD
:101000003103E0933003DF91CF910895EA01CE17C9
:10101000DF07E8F54A815B819E0141155105B1F773
:10102000E901FB83EA8349915991C40FD51FEC175D
:10103000FD0761F4808191810296840F951FE9017B
:1010400099838883828193819B838A83F0E0E0E0A7
:1010500012968D919C9113970097B9F52D913C9123
:101060001197CD010296820F931F2091300330918A
:1010700031032817390739F6309751F510923303A9
:1010800010923203B0933103A0933003BCCFD383CB
:10109000C28340815181840F951FC817D90761F41D
:1010A0004E5F5F4F88819981480F591F518340835C
:1010B0008A819B81938382832115310509F0B0CF0A
:1010C000F0933303E09332039ECFFD01DC01C0CFE8
:1010D00013821282D7CFB0E0A0E0E1E7F8E00C94F1
:1010E000E9068C01009751F4CB010E9446078C0160
:1010F000C801CDB7DEB7E0E10C940507FC01E60FAF
:10110000F71F9C0122503109E217F30708F49DC034
:10111000D901CD91DC911197C617D70798F0C5304A
:10112000D10530F3CE0104978617970708F3C61B45
:10113000D70B2297C193D1936D937C93CF010E94DB
:10114000E207D6CF5B01AC1ABD0A4C018C0E9D1E86
:10115000A0913203B0913303512C412CF12CE12C9E
:10116000109731F5809130039091310388159905DE
:1011700009F05CC04616570608F058C0809101017E
:1011800090910201009741F48DB79EB740910501FF
:1011900050910601841B950BE817F90708F055C01C
:1011A000F0933103E0933003F90171836083A0CFA2
:1011B0008D919C91119712966C90129713967C903A
:1011C0001397A815B90559F56C0142E0C40ED11C5E
:1011D000CA14DB0420F1AC014A195B09DA0112964A
:1011E000159780F06282738251834083D9016D9399
:1011F0007C93E114F10471F0D7011396FC93EE9304
:10120000129776CF22968C0F9D1FF90191838083D0
:10121000F301EFCFF0933303E093320369CF481625
:10122000590608F42C017D01D3019ACFCB010E940D
:1012300046077C01009749F0AE01B8010E942809D9
:10124000C8010E94E207870153CF10E000E050CFB1
:10125000FB01DC0102C001900D9241505040D8F7D3
:101260000895FB01DC0101900D920020E1F7089543
:10127000F894FFCF010000340380000000000086D6
:1012800002B401E101D3024402F0013602802500DC
:101290000000C201000D0A003D3D3D2043415520A4
:1012A00048494E4820554152542042415544203D22
:1012B0003D3D004E68616E206E75743A002020310D
:1012C000206C616E202D3E203936303020627073E4
:1012D00000202032206C616E202D3E2031313532CD
:1012E00030302062707300476975203D3E337320B3
:1012F000646520786163206E68616E003E3E3E202A
:1013000043686F6E3A203936303020627073003E89
:101310003E3E2043686F6E3A203131353230302006
:10132000627073000A3D3D3D2043484520444F20F4
:1013300056414E2048414E48203D3D3D003E3E3EF8
:101340002044616E672063686179206F2042617577
:10135000643A2039363030003E3E3E2044616E67AC
:101360002063686179206F20426175643A203131D1
:10137000353230300042617564726174653A200024
:10138000476975206E7574203E3373206465207440
:10139000726F207665206361752068696E68000A47
:1013A0003D3D3D2054524F20564520434155204855
:1013B000494E48203D3D3D00202031206C616E208B
:1013C0003D3E2039363030206270730020203220BC
:1013D0006C616E203D3E20313135323030206270FC
:0E13E00073004E68616E2064756F633A2000E2
:107E0000112484B714BE81FFF0D085E080938100F7
:107E100082E08093C00088E18093C10086E0809377
:107E2000C20080E18093C4008EE0C9D0259A86E02C
:107E300020E33CEF91E0309385002093840096BBD3
:107E4000B09BFECF1D9AA8958150A9F7CC24DD24C4
:107E500088248394B5E0AB2EA1E19A2EF3E0BF2EE7
:107E6000A2D0813461F49FD0082FAFD0023811F036
:107E7000013811F484E001C083E08DD089C08234E0
:107E800011F484E103C0853419F485E0A6D080C0E4
:107E9000853579F488D0E82EFF2485D0082F10E0AE
:107EA000102F00270E291F29000F111F8ED06801E7
:107EB0006FC0863521F484E090D080E0DECF843638
:107EC00009F040C070D06FD0082F6DD080E0C81688
:107ED00080E7D80618F4F601B7BEE895C0E0D1E017
:107EE00062D089930C17E1F7F0E0CF16F0E7DF06D8
:107EF00018F0F601B7BEE89568D007B600FCFDCFD4
:107F0000A601A0E0B1E02C9130E011968C91119780
:107F100090E0982F8827822B932B1296FA010C0160
:107F200087BEE89511244E5F5F4FF1E0A038BF0790
:107F300051F7F601A7BEE89507B600FCFDCF97BE46
:107F4000E89526C08437B1F42ED02DD0F82E2BD052
:107F50003CD0F601EF2C8F010F5F1F4F84911BD097
:107F6000EA94F801C1F70894C11CD11CFA94CF0C13
:107F7000D11C0EC0853739F428D08EE10CD085E9AC
:107F80000AD08FE07ACF813511F488E018D01DD067
:107F900080E101D065CF982F8091C00085FFFCCF94
:107FA0009093C60008958091C00087FFFCCF809118
:107FB000C00084FD01C0A8958091C6000895E0E648
:107FC000F0E098E1908380830895EDDF803219F02E
:107FD00088E0F5DFFFCF84E1DECF1F93182FE3DFCA
:107FE0001150E9F7F2DF1F91089580E0E8DFEE27F6
:047FF000FF270994CA
:027FFE00040479
:00000001FF
