:020000040000FA
:100000000C9463000C948B000C948B000C948B006C
:100010000C948B000C948B000C948B000C948B0034
:100020000C948B000C948B000C948B000C948B0024
:100030000C948B000C948B000C948B000C948B0014
:100040000C94FB050C948B000C948B000C948B008F
:100050000C948B000C948B000C948B000C948B00F4
:100060000C9445060C948B0030383A35313A3430D4
:10007000004E6F76203133203230323500000000E0
:1000800000250028002B00040404040404040402D6
:100090000202020202030303030303010204081025
:1000A00020408001020408102001020408102000F2
:1000B0000000080002010000030407000000000027
:1000C00000000000640711241FBECFEFD8E0DEBFA0
:1000D000CDBF22E0A6E7B1E001C01D92A835B2076E
:1000E000E1F711E0A0E0B1E0EAE6F7E102C0059037
:1000F0000D92A637B107D9F710E0C3E6D0E004C0EF
:100100002197FE010E94880AC236D107C9F70E94D2
:1001100085070C94B30B0C9400000895089590E0AB
:10012000FC01E155FF4F2491FC01E556FF4F34914E
:10013000FC01E957FF4FE491EE23C9F0222339F087
:10014000233001F1A8F4213019F1223029F1F0E037
:10015000EE0FFF1FE358FF4FA591B4918FB7F894AE
:10016000EC91611126C030953E233C938FBF0895DA
:100170002730A9F02830C9F0243049F78091800059
:100180008F7D03C0809180008F7780938000DFCFC8
:1001900084B58F7784BDDBCF84B58F7DFBCF809115
:1001A000B0008F778093B000D2CF8091B0008F7D68
:1001B000F9CF3E2BDACF3FB7F8948091C1019091EF
:1001C000C201A091C301B091C40126B5A89B05C08E
:1001D0002F3F19F00196A11DB11D3FBFBA2FA92FC6
:1001E000982F8827BC01CD01620F711D811D911DC3
:1001F00042E0660F771F881F991F4A95D1F708952F
:100200008F929F92AF92BF92CF92DF92EF92FF9226
:100210004B015C010E94DB006B017C010E94DB0052
:100220006C197D098E099F09683E7340810591050F
:10023000A8F321E0821A9108A108B10888EEC80E3F
:1002400083E0D81EE11CF11C81149104A104B104C7
:1002500029F7FF90EF90DF90CF90BF90AF909F90E5
:100260008F900895AF92BF92CF92DF92EF92FF925C
:100270000F931F93CF93DF936C017B018B01040FCE
:10028000151FEB015E01AE18BF08C017D10759F06A
:100290006991D601ED91FC910190F081E02DC601AC
:1002A0000995892B79F7C501DF91CF911F910F91A6
:1002B000FF90EF90DF90CF90BF90AF90089508959A
:1002C000FC01908190539A3008F090E08181805336
:1002D0002AE0929F800D1124089520919701260F06
:1002E0003327331F21323105ECF420911102FC0138
:1002F00090E080E0243069F082E00895A0919701B9
:100300002191AC0149585E4FA40FB52FB11D2C931C
:100310000196861798F380919701680F6093970173
:1003200080E0089581E008951092110281E08093A9
:1003300010021092EB0161E082E10E948F0061E007
:1003400083E10E948F00E9EBF0E080818E7F808363
:1003500080818D7F808388E48093B80085E48093DA
:10036000BC0008951092CA011092C901109218029F
:1003700010923A020E9494018DE890E09093C80197
:100380008093C7018EE890E09093C6018093C501E9
:100390000895CF93DF9391E0909376018823B9F08D
:1003A000C091B800D091BA008091BC008A7B809344
:1003B000BC0060E082E10E948F0060E083E10E9467
:1003C0008F000E949401D093BA00C093B800DF91CF
:1003D000CF9108958F929F92AF92BF92CF92DF926A
:1003E000EF92FF920F931F93CF93DF93D0913A0236
:1003F000D13208F0D7C0182FC09139020E94DB001B
:100400006B017C018091110281116BC082E08093AD
:100410001102109310028FEF80930F0210920E02C0
:10042000D0930D02A9E1B2E0EDEEF1E080E0D81347
:1004300091C01092EC018091EC01CC0FC82BC093BD
:10044000EC018091EB01813009F088C01092EB0142
:100450000E94DB006B017C018091EC018093BB006A
:100460008091130290911402A0911502B09116028E
:10047000892B8A2B8B2BA1F00E94DB0000911302A9
:100480001091140220911502309116026C197D0909
:100490008E099F09061717072807390708F442C075
:1004A0008091BC0083FDD8CF85EC8093BC000E9476
:1004B000DB006B017C0180911102823009F450C095
:1004C00080910F028F3F09F46FC080910F0280323C
:1004D00009F46CC080910F02803309F469C084E094
:1004E00026C08091130290911402A0911502B09140
:1004F0001602892B8A2B8B2B09F484CF0E94DB00F8
:100500008090130290901402A0901502B0901602F1
:100510006C197D098E099F0986169706A806B906EB
:1005200008F070CF809112020E94C90185E01092FC
:10053000180210923A0210921702DF91CF911F9188
:100540000F91FF90EF90DF90CF90BF90AF909F9072
:100550008F9008959D9191938F5F69CF85EEA5CF80
:100560008091130290911402A0911502B09116028D
:10057000892B8A2B8B2B09F49ECF0E94DB000091E4
:1005800013021091140220911502309116026C1979
:100590007D098E099F09061717072807390708F0F4
:1005A0008ACFC0CF81E0C3CF80E0C1CF82E0BFCF90
:1005B00083E0BDCF1F93CF93DF93EA01122FDC01BD
:1005C00011968D919C91DC01ED91FC910280F3815B
:1005D000E02D0995C817D90729F4812F0E94EA0157
:1005E00091E0811190E0892FDF91CF911F910895C3
:1005F000CF93DF93EC018B818823A1F0888191E078
:1006000090931702809339021092180210923A02C6
:1006100081E00E94EA0191E0811190E0892FDF9151
:10062000CF9108950E94B20181E08B83CE010E9498
:10063000F802982F8111E2CFF1CF0895E091CA011D
:100640008091C901E81730F4F0E0E553FE4F808156
:1006500090E008958FEF9FEF08959091CA018091E7
:10066000C9012FEF3FEF981748F4E92FF0E0E55369
:10067000FE4F208130E09F5F9093CA01C901089529
:100680008091C9019091CA01891B990B0895CF925D
:10069000DF92EF92FF920F931F93CF93DF937C0132
:1006A000CB018A0120911702222389F0EB016B0113
:1006B000C40ED51ECC15DD0569F06991D701ED9109
:1006C000FC910190F081E02DC7010995F3CF642FD3
:1006D0000E946D01C801DF91CF911F910F91FF9092
:1006E000EF90DF90CF900895CF93DF931F92CDB717
:1006F000DEB76983209117022223F9F020913A0294
:10070000203258F021E030E0FC013383228390E076
:1007100080E00F90DF91CF91089580911802E82F2B
:10072000F0E0E75EFD4F998190838F5F8093180220
:1007300080933A0281E090E0ECCF61E0CE01019637
:100740000E946D01F7CFFC01248131E03093170244
:10075000209339021092180210923A028485682B75
:100760008BE392E00E94740381E00C94EA0190E034
:1007700080E008958F929F92AF92BF920F931F9344
:10078000CF93DF93CDB7DEB7A1970FB6F894DEBF56
:100790000FBECDBF19A2423008F44AE08E010F5DB2
:1007A0001F4F842E912CB12CA12CA50194010E94E5
:1007B000660AE62FB901CA01EA3044F5E05DD801C6
:1007C000EE938D01232B242B252B79F790E080E0ED
:1007D000109769F0FD0101900020E9F73197AF0112
:1007E0004A1B5B0BBD0187E492E00E943201A19697
:1007F0000FB6F894DEBF0FBECDBFDF91CF911F9132
:100800000F91BF90AF909F908F900895E95CD7CFE4
:10081000FC0101900020E9F73197AF01481B590B0B
:10082000BC0187E492E00C9432012F923F924F92E8
:100830005F926F927F928F929F92AF92BF92CF9270
:10084000DF92EF92FF920F931F93CF93DF935C01A0
:100850001B016A01F12CE12CD50114968D919C911C
:1008600086010E191F098017910708F48C01F50104
:10087000D0810E94DB002B013C018091110281118B
:1008800072C0C02F013208F0C0E2F1E0F093110213
:1008900021E0C601801B910BE816F90608F420E060
:1008A000209310028FEF80930F0210920E028C0F94
:1008B00080930D02A1E0A093EC018091EC01DD0F8B
:1008C000D82BD093EC018091EB01813009F090C0DE
:1008D0001092EB010E94DB002B013C018091EC01A6
:1008E0008093BB008091130290911402A091150295
:1008F000B0911602892B8A2B8B2BA1F00E94DB0072
:100900002091130230911402409115025091160269
:100910006419750986099709261737074807590783
:1009200008F442C08091BC0083FDD8CFB5ECB093F1
:10093000BC000E94DB002B013C0180911102813040
:1009400009F45AC080910E028C1710F4C0910E0267
:10095000ADEEB1E0EBECF1E080E08C1751F19D9150
:1009600091938F5FFACF8091130290911402A0911E
:100970001502B0911602892B8A2B8B2B09F47DCF9F
:100980000E94DB0020911302309114024091150265
:1009900050911602641975098609970926173707B9
:1009A0004807590708F069CF809112020E94C901D7
:1009B000C0E01092CA01C093C901C017110609F026
:1009C00057C041018E0C9F1CE401CE018819990982
:1009D0008017910798F5D50111968D919C91DC01B6
:1009E000ED91FC910284F385E02D09958993EDCF7B
:1009F000E5EEE093BC009DCF80911302909114022C
:100A0000A0911502B0911602892B8A2B8B2B09F429
:100A100094CF0E94DB002091130230911402409188
:100A2000150250911602641975098609970926174F
:100A300037074807590708F080CFB6CFE00EF11E00
:100A4000EC14FD0408F408CF81E0DF91CF911F91F1
:100A50000F91FF90EF90DF90CF90BF90AF909F905D
:100A60008F907F906F905F904F903F902F90089560
:100A700080E0EBCF682F70E090E080E04AE00C94DB
:100A8000BA030F931F93CF938C01C62F0E94A30329
:100A90006C2F6460C8010E94A3036C2F6B7FC80198
:100AA0000E94A30383EC90E00197F1F7CF911F918F
:100AB0000F9108950F931F93CF93DF938C01D62F3F
:100AC000C42F607F642B0E94410580E1D89FB00154
:100AD00011246C2BC801DF91CF911F910F910C94C1
:100AE0004105CF93DF93CDB7DEB728970FB6F894C3
:100AF000DEBF0FBECDBF98E0E6E0F1E0DE0111966B
:100B000001900D929A95E1F790914F02981708F491
:100B10008FEF90E0880F991F21E030E02C0F3D1FF0
:100B2000820F931FFC016081606840E087E492E0DF
:100B300028960FB6F894DEBF0FBECDBFDF91CF91E0
:100B40000C945A0540E061E087E492E00E945A0567
:100B50008BE39FE10197F1F780915002882319F010
:100B600080E00C947105089541E00E945A0581E0EF
:100B700090E0089541E0682F87E492E00E945A05D2
:100B800081E090E0089585ED8093BC008091130290
:100B900090911402A0911502B09116020796A11D22
:100BA000B11D23E0B695A795979587952A95D1F71E
:100BB0002091BC0024FD03C01092110208954091C1
:100BC0001302509114026091150270911602452B88
:100BD000462B472B69F30097A105B10541F02AE2A6
:100BE0002A95F1F700C00197A109B109E1CF8091E1
:100BF00012020C94C9011F920F920FB60F9211248A
:100C00002F933F938F939F93AF93BF938091BD0199
:100C10009091BE01A091BF01B091C0013091BC0183
:100C200023E0230F2D3758F50196A11DB11D209308
:100C3000BC018093BD019093BE01A093BF01B0930E
:100C4000C0018091C1019091C201A091C301B091F6
:100C5000C4010196A11DB11D8093C1019093C201F1
:100C6000A093C301B093C401BF91AF919F918F91A5
:100C70003F912F910F900FBE0F901F90189526E86F
:100C8000230F0296A11DB11DD2CF1F920F920FB656
:100C90000F9211242F933F934F935F936F937F9302
:100CA0008F939F93AF93BF93EF93FF938091B9007E
:100CB000887F803609F44AC0F0F5883209F4A7C06D
:100CC00018F5803109F49BC0B8F4882309F4F9C001
:100CD000883009F494C0FF91EF91BF91AF919F913B
:100CE0008F917F916F915F914F913F912F910F90D5
:100CF0000FBE0F901F901895883109F488C080327C
:100D000051F780930F0214C0803409F49DC040F461
:100D10008033B9F38833F9F680930F0285ECB0C0C5
:100D2000803509F485C0883509F496C0883499F671
:100D30000E94C305D0CF883909F48CC038F58837B4
:100D400029F050F4883611F0803729F683E080933B
:100D500011021092B90157C0883809F47BC080395C
:100D600019F0803809F0B7CF8091B901803208F0CE
:100D700071C0E091B90181E08E0F8093B90180913B
:100D8000BB00F0E0E756FE4F80833DC0803B39F06A
:100D9000E0F4803A09F479C0883A09F09CCF84E005
:100DA000809311021092980110929701E091C7016F
:100DB000F091C80109958091970181110FC081E0E0
:100DC000809397011092770109C0803C09F4A6CF67
:100DD000883C09F4A3CF883B09F07DCFE0919801CE
:100DE00081E08E0F80939801F0E0E958FE4F8081FA
:100DF0008093BB00909198018091970129C08091C8
:100E0000EC018093BB0085EC8093BC0064CF909193
:100E10000E0280910D02981758F5E0910E0281E0C4
:100E20008E0F80930E02F0E0E351FE4F8081E9CFF8
:100E3000E0910E0281E08E0F80930E028091BB0044
:100E4000F0E0E351FE4F808390910E0280910D02FD
:100E50009817C8F285E8D8CFE0910E0281E08E0F96
:100E600080930E028091BB00F0E0E351FE4F80833F
:100E70008091100281115CCF81E08093EB0184EAC4
:100E80008093BC001092110226CF85EC8093BC00A9
:100E9000109211028091B901803230F4E091B901D1
:100EA000F0E0E756FE4F10826091B90170E0E091EA
:100EB000C501F091C60189E991E009951092B90147
:100EC0000ACF10920F0234CFEBE3F2E013821282CA
:100ED00088EE93E0A0E0B0E084839583A683B78397
:100EE00082E191E091838083E7E4F2E01382128251
:100EF00084E291E091838083118687E2848380E19C
:100F0000828782E0838714860895CF93DF93CDB7DD
:100F1000DEB72C970FB6F894DEBF0FBECDBF789426
:100F200084B5826084BD84B5816084BD85B58260EE
:100F300085BD85B5816085BD80916E00816080939F
:100F40006E00109281008091810082608093810008
:100F50008091810081608093810080918000816018
:100F6000809380008091B10084608093B100809173
:100F7000B00081608093B00080917A00846080939B
:100F80007A0080917A00826080937A0080917A0062
:100F9000816080937A0080917A00806880937A00E3
:100FA0001092C1000E94B20110924C028091520234
:100FB000823018F098E090934C0280934F0262E3E5
:100FC00070E080E090E00E9400016091530287E4AD
:100FD00092E00E94A30368EE73E080E090E00E943C
:100FE000000160E387E492E00E944105BBE4EB2E40
:100FF000B6E4FB2EC7010197F1F760E387E492E0C6
:101000000E944105C7010197F1F760E387E492E090
:101010000E94410583E592E00197F1F760E287E4E1
:1010200092E00E94410560914C02606240E087E4DA
:1010300092E00E945A0584E080934D0240E06CE00B
:1010400087E492E00E945A050E94A20582E0809304
:101050004E0240E066E087E492E00E945A0540E0DC
:1010600062E087E492E00E945A058BE39FE10197DA
:10107000F1F788E08093530260E087E492E00E94F9
:10108000A30380E00E9471058CE291E00E940804B5
:1010900081E00E9471058BE391E00E940804809139
:1010A000BA019091BB01009711F00E942A0B86E0D3
:1010B00090E00E948E0A7C0188E6F70180838BE332
:1010C00092E092838183138280E290E0958384830F
:1010D000F092BB01E092BA010E94B20181E0F701F7
:1010E0008383C7010E94F802811104C08AE491E061
:1010F0000E9408041C868091BA019091BB01FC01FA
:1011000024813581232B91F0208131E03093170227
:10111000209339021092180210923A0221E041E025
:1011200050E0BE01645F7F4F0E94DA0241E050E070
:10113000CE0101965C01BC018091BA019091BB0186
:101140000E941504898190E0880F892F881F990BD0
:10115000892B09F4A8C00E94A20589E591E00E94AC
:1011600008044BE050E061E770E0C5010E94510ABD
:10117000CE010A960E946001082FE981E154E33113
:10118000D8F40E2E000CFF0BE853F74F0C94880A8E
:101190003B0ADC08DC084F0ADC08DB08DC08DC085A
:1011A000DC082F0ADC08DC08420A4D0A4B0ADC087E
:1011B000DC08DC08490A12E0CE0105960E946001B5
:1011C000F82E48E050E068E670E0C5010E94510A40
:1011D000C5010E946001E82ECE0104960E946001C4
:1011E000D82ECE0107960E946001382F86E0F501C7
:1011F00011928A95E9F72AE0832F622F0E945A0AFA
:10120000982F880F890F880F830F8A838D2D0E9456
:101210005A0A982F880F890F880F8D0D8B838E2D7A
:101220000E945A0A982F880F890F880F8E0D8C8381
:101230008F2D0E945A0A982F880F890F880F8F0DC3
:101240008E83812F0E945A0A982F990F890F880F39
:10125000180F1F83802F0E945A0A982F880F890F1A
:10126000880F800F88878091BA019091BB01FC01A3
:10127000248135812830310580F0208131E03093A0
:101280001702209339021092180210923A0221E0BC
:1012900048E050E0B5010E94DA0260ED77E080E0BE
:1012A00090E00E9400010E94A205F0E08F2EF0E085
:1012B0009F2E6624639419820091BA011091BB019C
:1012C000F80184819581892BC1F080816092170299
:1012D000809339021092180210923A0220E041E005
:1012E00050E0B501C8010E94DA02882331F047E0DE
:1012F00050E0B501C8010E94150429812F77822F83
:1013000090E034E0959587953A95E1F7982F990FFD
:10131000990FD82ED91ADD0CD20E2A81822F90E097
:1013200044E0959587954A95E1F7982F990F990F85
:10133000C82EC91ACC0CC20E2B81822F90E054E02B
:10134000959587955A95E1F7982F990F990F782ED3
:10135000791A770C720E2D81822F90E064E09595BA
:1013600087956A95E1F7982F990F990FE82EE91A5A
:10137000EE0CE20E2E81822F90E074E09595879519
:101380007A95E1F7982F990F990FF82EF91AFF0C1B
:10139000F20E6F81862F90E0E4E095958795EA95AF
:1013A000E1F7982F990F990F082F091B000F060FCF
:1013B00010E080E00E94710587E691E00E94080439
:1013C000F9E0F71518F080E30E94BA05872D0E9416
:1013D0003A058AE30E94BA0589E08C1518F080E38B
:1013E0000E94BA058C2D0E943A058AE30E94BA0534
:1013F00099E09D1518F080E30E94BA058D2D0E949A
:101400003A0581E00E9471058EE691E00E94080491
:10141000E9E0EE1518F080E30E94BA058E2D0E94D7
:101420003A058FE20E94BA05F9E0FF1518F080E353
:101430000E94BA058F2D0E943A058FE20E94BA05DC
:101440000053184FB80190E080E04AE00E94BA03D0
:101450008114910409F42FCF0E9400002CCF8A81BF
:1014600011E0813609F4A8CE8B8117E08E3609F0A1
:10147000A3CE16E0A1CE8B8118E0823709F09CCE76
:1014800014E09ACE8B8115E0823709F095CE13E0F7
:1014900093CE19E091CE1AE08FCE1BE08DCE1CE0EA
:1014A0008BCEFB01DC0102C005900D9241505040F3
:1014B000D8F70895991B79E004C0991F961708F092
:1014C000961B881F7A95C9F780950895A1E21A2E78
:1014D000AA1BBB1BFD010DC0AA1FBB1FEE1FFF1FD8
:1014E000A217B307E407F50720F0A21BB30BE40B28
:1014F000F50B661F771F881F991F1A9469F760956F
:101500007095809590959B01AC01BD01CF01089528
:10151000EE0FFF1F0590F491E02D09940F931F9398
:10152000CF93DF938230910510F482E090E0E09158
:101530005602F091570230E020E0B0E0A0E0309792
:1015400099F42115310509F44AC0281B390B2430C0
:101550003105D8F58A819B816115710589F1FB01FF
:1015600093838283FE0111C04081518102811381E6
:1015700048175907E0F04817590799F4109761F098
:1015800012960C93129713961C933296CF01DF910B
:10159000CF911F910F910895009356021093570217
:1015A000F4CF2115310551F04217530738F0A90146
:1015B000DB019A01BD01DF01F801C1CFEF01F9CFD5
:1015C0009093570280935602CDCFFE01E20FF31F96
:1015D000819391932250310939832883D7CF209169
:1015E000540230915502232B41F420910201309195
:1015F0000301309355022093540220910001309151
:1016000001012115310541F42DB73EB74091040188
:1016100050910501241B350BE0915402F0915502C5
:10162000E217F307A0F42E1B3F0B2817390778F0B9
:10163000AC014E5F5F4F2417350748F04E0F5F1F18
:101640005093550240935402819391939FCFF0E0C1
:10165000E0E09CCFCF93DF930097E9F0FC01329755
:1016600013821282A0915602B0915702ED0130E030
:1016700020E01097A1F420813181820F931F2091E7
:101680005402309155022817390709F061C0F093D0
:101690005502E0935402DF91CF910895EA01CE17ED
:1016A000DF07E8F54A815B819E0141155105B1F7DD
:1016B000E901FB83EA8349915991C40FD51FEC17C7
:1016C000FD0761F4808191810296840F951FE901E5
:1016D00099838883828193819B838A83F0E0E0E011
:1016E00012968D919C9113970097B9F52D913C918D
:1016F0001197CD010296820F931F209154023091D1
:1017000055022817390739F6309751F510925702CC
:1017100010925602B0935502A0935402BCCFD383CB
:10172000C28340815181840F951FC817D90761F486
:101730004E5F5F4F88819981480F591F51834083C5
:101740008A819B81938382832115310509F0B0CF73
:10175000F0935702E09356029ECFFD01DC01C0CF0B
:1017600013821282D7CFF894FFCF00005802800076
:101770000000400014005400000000007403470300
:10178000B7031D0340032D031E0300000000B40532
:101790003201B7035F014C696E65203120746573B7
:1017A00074204F4B004C696E652032207465737451
:1017B000204F4B00525443206E6F7420666F756E3D
:1017C0006421005254432061646A7573742E2E2E76
:1017D0000054696D653A2000446174653A20000048
:107E0000112484B714BE81FFF0D085E080938100F7
:107E100082E08093C00088E18093C10086E0809377
:107E2000C20080E18093C4008EE0C9D0259A86E02C
:107E300020E33CEF91E0309385002093840096BBD3
:107E4000B09BFECF1D9AA8958150A9F7CC24DD24C4
:107E500088248394B5E0AB2EA1E19A2EF3E0BF2EE7
:107E6000A2D0813461F49FD0082FAFD0023811F036
:107E7000013811F484E001C083E08DD089C08234E0
:107E800011F484E103C0853419F485E0A6D080C0E4
:107E9000853579F488D0E82EFF2485D0082F10E0AE
:107EA000102F00270E291F29000F111F8ED06801E7
:107EB0006FC0863521F484E090D080E0DECF843638
:107EC00009F040C070D06FD0082F6DD080E0C81688
:107ED00080E7D80618F4F601B7BEE895C0E0D1E017
:107EE00062D089930C17E1F7F0E0CF16F0E7DF06D8
:107EF00018F0F601B7BEE89568D007B600FCFDCFD4
:107F0000A601A0E0B1E02C9130E011968C91119780
:107F100090E0982F8827822B932B1296FA010C0160
:107F200087BEE89511244E5F5F4FF1E0A038BF0790
:107F300051F7F601A7BEE89507B600FCFDCF97BE46
:107F4000E89526C08437B1F42ED02DD0F82E2BD052
:107F50003CD0F601EF2C8F010F5F1F4F84911BD097
:107F6000EA94F801C1F70894C11CD11CFA94CF0C13
:107F7000D11C0EC0853739F428D08EE10CD085E9AC
:107F80000AD08FE07ACF813511F488E018D01DD067
:107F900080E101D065CF982F8091C00085FFFCCF94
:107FA0009093C60008958091C00087FFFCCF809118
:107FB000C00084FD01C0A8958091C6000895E0E648
:107FC000F0E098E1908380830895EDDF803219F02E
:107FD00088E0F5DFFFCF84E1DECF1F93182FE3DFCA
:107FE0001150E9F7F2DF1F91089580E0E8DFEE27F6
:047FF000FF270994CA
:027FFE00040479
:00000001FF
